{
    "_format": "hh-sol-artifact-1",
    "contractName": "EntityServiceRegistry",
    "sourceName": "contracts/core/EntityServiceRegistry.sol",
    "abi": [
        {
            "inputs": [],
            "stateMutability": "nonpayable",
            "type": "constructor"
        },
        {
            "anonymous": false,
            "inputs": [
                {
                    "indexed": true,
                    "internalType": "uint256",
                    "name": "businessContractId",
                    "type": "uint256"
                },
                {
                    "indexed": true,
                    "internalType": "uint256",
                    "name": "price",
                    "type": "uint256"
                },
                {
                    "indexed": false,
                    "internalType": "uint256",
                    "name": "delivery_date",
                    "type": "uint256"
                },
                {
                    "indexed": false,
                    "internalType": "uint256",
                    "name": "quantity",
                    "type": "uint256"
                },
                {
                    "indexed": false,
                    "internalType": "string",
                    "name": "product_name",
                    "type": "string"
                }
            ],
            "name": "BusinessContractInfoCreated",
            "type": "event"
        },
        {
            "anonymous": false,
            "inputs": [
                {
                    "indexed": true,
                    "internalType": "uint256",
                    "name": "businessContractId",
                    "type": "uint256"
                },
                {
                    "indexed": true,
                    "internalType": "uint256",
                    "name": "price",
                    "type": "uint256"
                },
                {
                    "indexed": false,
                    "internalType": "uint256",
                    "name": "delivery_date",
                    "type": "uint256"
                },
                {
                    "indexed": false,
                    "internalType": "uint256",
                    "name": "quantity",
                    "type": "uint256"
                },
                {
                    "indexed": true,
                    "internalType": "string",
                    "name": "product_name",
                    "type": "string"
                }
            ],
            "name": "BusinessContractInfoUpdated",
            "type": "event"
        },
        {
            "anonymous": false,
            "inputs": [
                {
                    "indexed": true,
                    "internalType": "address",
                    "name": "previousOwner",
                    "type": "address"
                },
                {
                    "indexed": true,
                    "internalType": "address",
                    "name": "newOwner",
                    "type": "address"
                }
            ],
            "name": "OwnershipTransferred",
            "type": "event"
        },
        {
            "inputs": [
                {
                    "internalType": "uint256",
                    "name": "_businessContractId",
                    "type": "uint256"
                },
                {
                    "internalType": "uint256",
                    "name": "_price",
                    "type": "uint256"
                },
                {
                    "internalType": "uint256",
                    "name": "_delivery_date",
                    "type": "uint256"
                },
                {
                    "internalType": "uint256",
                    "name": "_quantity",
                    "type": "uint256"
                },
                {
                    "internalType": "string",
                    "name": "_product_name",
                    "type": "string"
                }
            ],
            "name": "addBusinessContractInfo",
            "outputs": [],
            "stateMutability": "nonpayable",
            "type": "function"
        },
        {
            "inputs": [
                {
                    "internalType": "uint256",
                    "name": "_businessContractId",
                    "type": "uint256"
                }
            ],
            "name": "getBusinessContractInfo",
            "outputs": [
                {
                    "internalType": "uint256",
                    "name": "businessContractId",
                    "type": "uint256"
                },
                {
                    "internalType": "uint256",
                    "name": "price",
                    "type": "uint256"
                },
                {
                    "internalType": "uint256",
                    "name": "quantity",
                    "type": "uint256"
                },
                {
                    "internalType": "uint256",
                    "name": "delivery_date",
                    "type": "uint256"
                },
                {
                    "internalType": "string",
                    "name": "product_name",
                    "type": "string"
                },
                {
                    "internalType": "bool",
                    "name": "isExist",
                    "type": "bool"
                }
            ],
            "stateMutability": "view",
            "type": "function"
        },
        {
            "inputs": [],
            "name": "owner",
            "outputs": [
                {
                    "internalType": "address",
                    "name": "",
                    "type": "address"
                }
            ],
            "stateMutability": "view",
            "type": "function"
        },
        {
            "inputs": [],
            "name": "renounceOwnership",
            "outputs": [],
            "stateMutability": "nonpayable",
            "type": "function"
        },
        {
            "inputs": [],
            "name": "testConnection",
            "outputs": [
                {
                    "internalType": "bool",
                    "name": "",
                    "type": "bool"
                }
            ],
            "stateMutability": "pure",
            "type": "function"
        },
        {
            "inputs": [
                {
                    "internalType": "address",
                    "name": "newOwner",
                    "type": "address"
                }
            ],
            "name": "transferOwnership",
            "outputs": [],
            "stateMutability": "nonpayable",
            "type": "function"
        },
        {
            "inputs": [
                {
                    "internalType": "uint256",
                    "name": "_businessContractId",
                    "type": "uint256"
                },
                {
                    "internalType": "uint256",
                    "name": "_price",
                    "type": "uint256"
                },
                {
                    "internalType": "uint256",
                    "name": "_delivery_date",
                    "type": "uint256"
                },
                {
                    "internalType": "uint256",
                    "name": "_quantity",
                    "type": "uint256"
                },
                {
                    "internalType": "string",
                    "name": "_product_name",
                    "type": "string"
                }
            ],
            "name": "updateBusinessContractInfo",
            "outputs": [
                {
                    "internalType": "bool",
                    "name": "success",
                    "type": "bool"
                }
            ],
            "stateMutability": "nonpayable",
            "type": "function"
        }
    ],
    "bytecode": "0x608060405234801561001057600080fd5b5061001a33610031565b600180546001600160a01b03191633179055610081565b600080546001600160a01b038381166001600160a01b0319831681178455604051919092169283917f8be0079c531659141344cd1fd0a4f28419497f9722a3daafe3b4186f6b6457e09190a35050565b6109f5806100906000396000f3fe608060405234801561001057600080fd5b506004361061007d5760003560e01c8063715018a61161005b578063715018a6146100d65780638da5cb5b146100e0578063b96409fa146100fb578063f2fde38b1461010e57600080fd5b80631af1ca7a146100825780633412a15c146100aa578063586354b9146100b1575b600080fd5b6100956100903660046107ac565b610121565b60405190151581526020015b60405180910390f35b6001610095565b6100c46100bf366004610884565b6101d2565b6040516100a1969594939291906108f9565b6100de610324565b005b6000546040516001600160a01b0390911681526020016100a1565b6100de6101093660046107ac565b61038a565b6100de61011c366004610939565b6105b3565b600085815260026020818152604083206001810188905560038101879055918201859055835161015792600401918501906106fd565b5060008681526002602052604090819020600501805460ff1916600117905551610182908390610969565b604080519182900382208683526020830186905291879189917f61974702aef7ea42071461190a041608d38c8f349ed1cfe73775b9899600b75b910160405180910390a450600195945050505050565b600081815260026020526040812060050154819081908190606090829060ff1615156001146102485760405162461bcd60e51b815260206004820152601360248201527f496e76616c696420636f6e74726163742069640000000000000000000000000060448201526064015b60405180910390fd5b60008781526002602081905260409091208054600182015492820154600383015460058401546004909401805493959492939192909160ff90911690829061028f90610985565b80601f01602080910402602001604051908101604052809291908181526020018280546102bb90610985565b80156103085780601f106102dd57610100808354040283529160200191610308565b820191906000526020600020905b8154815290600101906020018083116102eb57829003601f168201915b5050505050915095509550955095509550955091939550919395565b6000546001600160a01b0316331461037e5760405162461bcd60e51b815260206004820181905260248201527f4f776e61626c653a2063616c6c6572206973206e6f7420746865206f776e6572604482015260640161023f565b6103886000610695565b565b6000546001600160a01b031633146103e45760405162461bcd60e51b815260206004820181905260248201527f4f776e61626c653a2063616c6c6572206973206e6f7420746865206f776e6572604482015260640161023f565b8484838584600082116104445760405162461bcd60e51b815260206004820152602260248201527f44656c697665727920646174652063616e6e6f74206265206c65667420656d70604482015261747960f01b606482015260840161023f565b336104915760405162461bcd60e51b815260206004820152601a60248201527f456e73757265206f776e65722061646472657373206578697374000000000000604482015260640161023f565b60008a81526002602052604090206005015460ff166104bd576104b78a8a8a8a8a610121565b506105a7565b60006040518060c001604052808c81526020018b81526020018981526020018a815260200188815260200160011515815250905080600260008d81526020019081526020016000206000820151816000015560208201518160010155604082015181600201556060820151816003015560808201518160040190805190602001906105499291906106fd565b5060a091909101516005909101805460ff19169115159190911790556040518a908c907fe74ffeba8a466b2811da336de39ce954ce13ca8e0f3e16e6b41feec785007c379061059d908d908d908d906109c0565b60405180910390a3505b50505050505050505050565b6000546001600160a01b0316331461060d5760405162461bcd60e51b815260206004820181905260248201527f4f776e61626c653a2063616c6c6572206973206e6f7420746865206f776e6572604482015260640161023f565b6001600160a01b0381166106895760405162461bcd60e51b815260206004820152602660248201527f4f776e61626c653a206e6577206f776e657220697320746865207a65726f206160448201527f6464726573730000000000000000000000000000000000000000000000000000606482015260840161023f565b61069281610695565b50565b600080546001600160a01b038381167fffffffffffffffffffffffff0000000000000000000000000000000000000000831681178455604051919092169283917f8be0079c531659141344cd1fd0a4f28419497f9722a3daafe3b4186f6b6457e09190a35050565b82805461070990610985565b90600052602060002090601f01602090048101928261072b5760008555610771565b82601f1061074457805160ff1916838001178555610771565b82800160010185558215610771579182015b82811115610771578251825591602001919060010190610756565b5061077d929150610781565b5090565b5b8082111561077d5760008155600101610782565b634e487b7160e01b600052604160045260246000fd5b600080600080600060a086880312156107c457600080fd5b85359450602086013593506040860135925060608601359150608086013567ffffffffffffffff808211156107f857600080fd5b818801915088601f83011261080c57600080fd5b81358181111561081e5761081e610796565b604051601f8201601f19908116603f0116810190838211818310171561084657610846610796565b816040528281528b602084870101111561085f57600080fd5b8260208601602083013760006020848301015280955050505050509295509295909350565b60006020828403121561089657600080fd5b5035919050565b60005b838110156108b85781810151838201526020016108a0565b838111156108c7576000848401525b50505050565b600081518084526108e581602086016020860161089d565b601f01601f19169290920160200192915050565b86815285602082015284604082015283606082015260c06080820152600061092460c08301856108cd565b905082151560a0830152979650505050505050565b60006020828403121561094b57600080fd5b81356001600160a01b038116811461096257600080fd5b9392505050565b6000825161097b81846020870161089d565b9190910192915050565b600181811c9082168061099957607f821691505b602082108114156109ba57634e487b7160e01b600052602260045260246000fd5b50919050565b8381528260208201526060604082015260006109df60608301846108cd565b9594505050505056fea164736f6c6343000809000a",
    "linkReferences": {},
    "deployedLinkReferences": {}
}